{
  "_format": "hh-sol-artifact-1",
  "contractName": "Tracking",
  "sourceName": "contracts/Tracking.sol",
  "abi": [
    {
      "inputs": [],
      "stateMutability": "nonpayable",
      "type": "constructor"
    },
    {
      "anonymous": false,
      "inputs": [
        {
          "indexed": true,
          "internalType": "address",
          "name": "sender",
          "type": "address"
        },
        {
          "indexed": true,
          "internalType": "address",
          "name": "receiver",
          "type": "address"
        },
        {
          "indexed": false,
          "internalType": "uint256",
          "name": "pickupTime",
          "type": "uint256"
        },
        {
          "indexed": false,
          "internalType": "uint256",
          "name": "distance",
          "type": "uint256"
        },
        {
          "indexed": false,
          "internalType": "uint256",
          "name": "price",
          "type": "uint256"
        }
      ],
      "name": "ShipmentCreated",
      "type": "event"
    },
    {
      "anonymous": false,
      "inputs": [
        {
          "indexed": true,
          "internalType": "address",
          "name": "sender",
          "type": "address"
        },
        {
          "indexed": true,
          "internalType": "address",
          "name": "receiver",
          "type": "address"
        },
        {
          "indexed": false,
          "internalType": "uint256",
          "name": "deliveryTime",
          "type": "uint256"
        }
      ],
      "name": "ShipmentDelivered",
      "type": "event"
    },
    {
      "anonymous": false,
      "inputs": [
        {
          "indexed": true,
          "internalType": "address",
          "name": "sender",
          "type": "address"
        },
        {
          "indexed": true,
          "internalType": "address",
          "name": "receiver",
          "type": "address"
        },
        {
          "indexed": false,
          "internalType": "uint256",
          "name": "pickupTime",
          "type": "uint256"
        }
      ],
      "name": "ShipmentInTransit",
      "type": "event"
    },
    {
      "anonymous": false,
      "inputs": [
        {
          "indexed": true,
          "internalType": "address",
          "name": "sender",
          "type": "address"
        },
        {
          "indexed": true,
          "internalType": "address",
          "name": "receiver",
          "type": "address"
        },
        {
          "indexed": false,
          "internalType": "uint256",
          "name": "amount",
          "type": "uint256"
        }
      ],
      "name": "ShipmentPaid",
      "type": "event"
    },
    {
      "inputs": [
        {
          "internalType": "address",
          "name": "_sender",
          "type": "address"
        },
        {
          "internalType": "address",
          "name": "_receiver",
          "type": "address"
        },
        {
          "internalType": "uint256",
          "name": "_index",
          "type": "uint256"
        }
      ],
      "name": "completeShipment",
      "outputs": [],
      "stateMutability": "nonpayable",
      "type": "function"
    },
    {
      "inputs": [
        {
          "internalType": "address",
          "name": "_receiver",
          "type": "address"
        },
        {
          "internalType": "uint256",
          "name": "_pickupTime",
          "type": "uint256"
        },
        {
          "internalType": "uint256",
          "name": "_distance",
          "type": "uint256"
        },
        {
          "internalType": "uint256",
          "name": "_price",
          "type": "uint256"
        }
      ],
      "name": "createShipment",
      "outputs": [],
      "stateMutability": "payable",
      "type": "function"
    },
    {
      "inputs": [
        {
          "internalType": "address",
          "name": "_sender",
          "type": "address"
        },
        {
          "internalType": "uint256",
          "name": "_index",
          "type": "uint256"
        }
      ],
      "name": "getShipment",
      "outputs": [
        {
          "internalType": "address",
          "name": "",
          "type": "address"
        },
        {
          "internalType": "address",
          "name": "",
          "type": "address"
        },
        {
          "internalType": "uint256",
          "name": "",
          "type": "uint256"
        },
        {
          "internalType": "uint256",
          "name": "",
          "type": "uint256"
        },
        {
          "internalType": "uint256",
          "name": "",
          "type": "uint256"
        },
        {
          "internalType": "uint256",
          "name": "",
          "type": "uint256"
        },
        {
          "internalType": "enum Tracking.ShipmentStatus",
          "name": "",
          "type": "uint8"
        },
        {
          "internalType": "bool",
          "name": "",
          "type": "bool"
        }
      ],
      "stateMutability": "view",
      "type": "function"
    },
    {
      "inputs": [
        {
          "internalType": "address",
          "name": "_sender",
          "type": "address"
        }
      ],
      "name": "getShipmentsCount",
      "outputs": [
        {
          "internalType": "uint256",
          "name": "",
          "type": "uint256"
        }
      ],
      "stateMutability": "view",
      "type": "function"
    },
    {
      "inputs": [],
      "name": "shipmentCount",
      "outputs": [
        {
          "internalType": "uint256",
          "name": "",
          "type": "uint256"
        }
      ],
      "stateMutability": "view",
      "type": "function"
    },
    {
      "inputs": [
        {
          "internalType": "address",
          "name": "",
          "type": "address"
        },
        {
          "internalType": "uint256",
          "name": "",
          "type": "uint256"
        }
      ],
      "name": "shipments",
      "outputs": [
        {
          "internalType": "address",
          "name": "sender",
          "type": "address"
        },
        {
          "internalType": "address",
          "name": "receiver",
          "type": "address"
        },
        {
          "internalType": "uint256",
          "name": "pickupTime",
          "type": "uint256"
        },
        {
          "internalType": "uint256",
          "name": "deliveryTime",
          "type": "uint256"
        },
        {
          "internalType": "uint256",
          "name": "distance",
          "type": "uint256"
        },
        {
          "internalType": "uint256",
          "name": "price",
          "type": "uint256"
        },
        {
          "internalType": "enum Tracking.ShipmentStatus",
          "name": "status",
          "type": "uint8"
        },
        {
          "internalType": "bool",
          "name": "isPaid",
          "type": "bool"
        }
      ],
      "stateMutability": "view",
      "type": "function"
    },
    {
      "inputs": [
        {
          "internalType": "address",
          "name": "_sender",
          "type": "address"
        },
        {
          "internalType": "address",
          "name": "_receiver",
          "type": "address"
        },
        {
          "internalType": "uint256",
          "name": "_index",
          "type": "uint256"
        }
      ],
      "name": "startShipment",
      "outputs": [],
      "stateMutability": "nonpayable",
      "type": "function"
    }
  ],
  "bytecode": "0x6080604052348015600f57600080fd5b50600060018190555061154e806100276000396000f3fe6080604052600436106100705760003560e01c80637ff5265d1161004e5780637ff5265d1461011f5780638365da5414610148578063aace20b71461018c578063cbc4b181146101b757610070565b8063179a878c1461007557806341fdc1951461009e5780635667e02f146100db575b600080fd5b34801561008157600080fd5b5061009c60048036038101906100979190610f0c565b6101d3565b005b3480156100aa57600080fd5b506100c560048036038101906100c09190610f5f565b6105b0565b6040516100d29190610f9b565b60405180910390f35b3480156100e757600080fd5b5061010260048036038101906100fd9190610fb6565b6105fb565b604051610116989796959493929190611097565b60405180910390f35b34801561012b57600080fd5b5061014660048036038101906101419190610f0c565b6106ba565b005b34801561015457600080fd5b5061016f600480360381019061016a9190610fb6565b610945565b604051610183989796959493929190611097565b60405180910390f35b34801561019857600080fd5b506101a1610bb2565b6040516101ae9190610f9b565b60405180910390f35b6101d160048036038101906101cc9190611115565b610bb8565b005b6000808473ffffffffffffffffffffffffffffffffffffffff1673ffffffffffffffffffffffffffffffffffffffff168152602001908152602001600020805490508110610256576040517f08c379a000000000000000000000000000000000000000000000000000000000815260040161024d906111d9565b60405180910390fd5b60008060008573ffffffffffffffffffffffffffffffffffffffff1673ffffffffffffffffffffffffffffffffffffffff16815260200190815260200160002082815481106102a8576102a76111f9565b5b906000526020600020906007020190508273ffffffffffffffffffffffffffffffffffffffff168160010160009054906101000a900473ffffffffffffffffffffffffffffffffffffffff1673ffffffffffffffffffffffffffffffffffffffff161461034a576040517f08c379a000000000000000000000000000000000000000000000000000000000815260040161034190611274565b60405180910390fd5b6001600281111561035e5761035d611005565b5b8160060160009054906101000a900460ff16600281111561038257610381611005565b5b146103c2576040517f08c379a00000000000000000000000000000000000000000000000000000000081526004016103b9906112e0565b60405180910390fd5b8060060160019054906101000a900460ff1615610414576040517f08c379a000000000000000000000000000000000000000000000000000000000815260040161040b9061134c565b60405180910390fd5b60028160060160006101000a81548160ff0219169083600281111561043c5761043b611005565b5b02179055504281600301819055506000816005015490508160000160009054906101000a900473ffffffffffffffffffffffffffffffffffffffff1673ffffffffffffffffffffffffffffffffffffffff166108fc829081150290604051600060405180830381858888f193505050501580156104bd573d6000803e3d6000fd5b5060018260060160016101000a81548160ff0219169083151502179055508373ffffffffffffffffffffffffffffffffffffffff168573ffffffffffffffffffffffffffffffffffffffff167f3746ccceb54f44c9b0ee0120e596168d07ec9f6ca303cfdd9810d3b2e2686a2e846003015460405161053c9190610f9b565b60405180910390a38373ffffffffffffffffffffffffffffffffffffffff168573ffffffffffffffffffffffffffffffffffffffff167f2b6f2473aebafaf8d0889669490135928ec4454d2e29a103fd39693bbca6aef1836040516105a19190610f9b565b60405180910390a35050505050565b60008060008373ffffffffffffffffffffffffffffffffffffffff1673ffffffffffffffffffffffffffffffffffffffff168152602001908152602001600020805490509050919050565b6000602052816000526040600020818154811061061757600080fd5b9060005260206000209060070201600091509150508060000160009054906101000a900473ffffffffffffffffffffffffffffffffffffffff16908060010160009054906101000a900473ffffffffffffffffffffffffffffffffffffffff16908060020154908060030154908060040154908060050154908060060160009054906101000a900460ff16908060060160019054906101000a900460ff16905088565b6000808473ffffffffffffffffffffffffffffffffffffffff1673ffffffffffffffffffffffffffffffffffffffff16815260200190815260200160002080549050811061073d576040517f08c379a0000000000000000000000000000000000000000000000000000000008152600401610734906111d9565b60405180910390fd5b60008060008573ffffffffffffffffffffffffffffffffffffffff1673ffffffffffffffffffffffffffffffffffffffff168152602001908152602001600020828154811061078f5761078e6111f9565b5b906000526020600020906007020190508273ffffffffffffffffffffffffffffffffffffffff168160010160009054906101000a900473ffffffffffffffffffffffffffffffffffffffff1673ffffffffffffffffffffffffffffffffffffffff1614610831576040517f08c379a000000000000000000000000000000000000000000000000000000000815260040161082890611274565b60405180910390fd5b6000600281111561084557610844611005565b5b8160060160009054906101000a900460ff16600281111561086957610868611005565b5b146108a9576040517f08c379a00000000000000000000000000000000000000000000000000000000081526004016108a0906113b8565b60405180910390fd5b60018160060160006101000a81548160ff021916908360028111156108d1576108d0611005565b5b02179055508273ffffffffffffffffffffffffffffffffffffffff168473ffffffffffffffffffffffffffffffffffffffff167faafab9f94340179ff9cefd29621e1772a4b8efab8023163838f1b0a8f6ce5df583600201546040516109379190610f9b565b60405180910390a350505050565b6000806000806000806000806000808b73ffffffffffffffffffffffffffffffffffffffff1673ffffffffffffffffffffffffffffffffffffffff1681526020019081526020016000208054905089106109d4576040517f08c379a00000000000000000000000000000000000000000000000000000000081526004016109cb906111d9565b60405180910390fd5b60008060008c73ffffffffffffffffffffffffffffffffffffffff1673ffffffffffffffffffffffffffffffffffffffff1681526020019081526020016000208a81548110610a2657610a256111f9565b5b9060005260206000209060070201604051806101000160405290816000820160009054906101000a900473ffffffffffffffffffffffffffffffffffffffff1673ffffffffffffffffffffffffffffffffffffffff1673ffffffffffffffffffffffffffffffffffffffff1681526020016001820160009054906101000a900473ffffffffffffffffffffffffffffffffffffffff1673ffffffffffffffffffffffffffffffffffffffff1673ffffffffffffffffffffffffffffffffffffffff168152602001600282015481526020016003820154815260200160048201548152602001600582015481526020016006820160009054906101000a900460ff166002811115610b3957610b38611005565b5b6002811115610b4b57610b4a611005565b5b81526020016006820160019054906101000a900460ff1615151515815250509050806000015181602001518260400151836060015184608001518560a001518660c001518760e0015198509850985098509850985098509850509295985092959890939650565b60015481565b803414610bfa576040517f08c379a0000000000000000000000000000000000000000000000000000000008152600401610bf19061144a565b60405180910390fd5b60006040518061010001604052803373ffffffffffffffffffffffffffffffffffffffff1681526020018673ffffffffffffffffffffffffffffffffffffffff1681526020018581526020016000815260200184815260200183815260200160006002811115610c6d57610c6c611005565b5b81526020016000151581525090506000803373ffffffffffffffffffffffffffffffffffffffff1673ffffffffffffffffffffffffffffffffffffffff16815260200190815260200160002081908060018154018082558091505060019003906000526020600020906007020160009091909190915060008201518160000160006101000a81548173ffffffffffffffffffffffffffffffffffffffff021916908373ffffffffffffffffffffffffffffffffffffffff16021790555060208201518160010160006101000a81548173ffffffffffffffffffffffffffffffffffffffff021916908373ffffffffffffffffffffffffffffffffffffffff16021790555060408201518160020155606082015181600301556080820151816004015560a0820151816005015560c08201518160060160006101000a81548160ff02191690836002811115610dc457610dc3611005565b5b021790555060e08201518160060160016101000a81548160ff021916908315150217905550505060016000815480929190610dfe90611499565b91905055508473ffffffffffffffffffffffffffffffffffffffff163373ffffffffffffffffffffffffffffffffffffffff167f5001b34ecf2db5b7bbeddcbbe761ec9ecadcc7638018b98ce3e24995b0e946b6868686604051610e64939291906114e1565b60405180910390a35050505050565b600080fd5b600073ffffffffffffffffffffffffffffffffffffffff82169050919050565b6000610ea382610e78565b9050919050565b610eb381610e98565b8114610ebe57600080fd5b50565b600081359050610ed081610eaa565b92915050565b6000819050919050565b610ee981610ed6565b8114610ef457600080fd5b50565b600081359050610f0681610ee0565b92915050565b600080600060608486031215610f2557610f24610e73565b5b6000610f3386828701610ec1565b9350506020610f4486828701610ec1565b9250506040610f5586828701610ef7565b9150509250925092565b600060208284031215610f7557610f74610e73565b5b6000610f8384828501610ec1565b91505092915050565b610f9581610ed6565b82525050565b6000602082019050610fb06000830184610f8c565b92915050565b60008060408385031215610fcd57610fcc610e73565b5b6000610fdb85828601610ec1565b9250506020610fec85828601610ef7565b9150509250929050565b610fff81610e98565b82525050565b7f4e487b7100000000000000000000000000000000000000000000000000000000600052602160045260246000fd5b6003811061104557611044611005565b5b50565b600081905061105682611034565b919050565b600061106682611048565b9050919050565b6110768161105b565b82525050565b60008115159050919050565b6110918161107c565b82525050565b6000610100820190506110ad600083018b610ff6565b6110ba602083018a610ff6565b6110c76040830189610f8c565b6110d46060830188610f8c565b6110e16080830187610f8c565b6110ee60a0830186610f8c565b6110fb60c083018561106d565b61110860e0830184611088565b9998505050505050505050565b6000806000806080858703121561112f5761112e610e73565b5b600061113d87828801610ec1565b945050602061114e87828801610ef7565b935050604061115f87828801610ef7565b925050606061117087828801610ef7565b91505092959194509250565b600082825260208201905092915050565b7f496e76616c696420736869706d656e7420696e64657800000000000000000000600082015250565b60006111c360168361117c565b91506111ce8261118d565b602082019050919050565b600060208201905081810360008301526111f2816111b6565b9050919050565b7f4e487b7100000000000000000000000000000000000000000000000000000000600052603260045260246000fd5b7f496e76616c696420726563656976657200000000000000000000000000000000600082015250565b600061125e60108361117c565b915061126982611228565b602082019050919050565b6000602082019050818103600083015261128d81611251565b9050919050565b7f536869706d656e74206e6f7420696e207472616e736974000000000000000000600082015250565b60006112ca60178361117c565b91506112d582611294565b602082019050919050565b600060208201905081810360008301526112f9816112bd565b9050919050565b7f536869706d656e7420616c726561647920706169640000000000000000000000600082015250565b600061133660158361117c565b915061134182611300565b602082019050919050565b6000602082019050818103600083015261136581611329565b9050919050565b7f536869706d656e7420616c726561647920696e207472616e7369740000000000600082015250565b60006113a2601b8361117c565b91506113ad8261136c565b602082019050919050565b600060208201905081810360008301526113d181611395565b9050919050565b7f5061796d656e7420616d6f756e74206d757374206d617463682074686520707260008201527f6963652e00000000000000000000000000000000000000000000000000000000602082015250565b600061143460248361117c565b915061143f826113d8565b604082019050919050565b6000602082019050818103600083015261146381611427565b9050919050565b7f4e487b7100000000000000000000000000000000000000000000000000000000600052601160045260246000fd5b60006114a482610ed6565b91507fffffffffffffffffffffffffffffffffffffffffffffffffffffffffffffffff82036114d6576114d561146a565b5b600182019050919050565b60006060820190506114f66000830186610f8c565b6115036020830185610f8c565b6115106040830184610f8c565b94935050505056fea264697066735822122071dbf6f29d0a5cebf4d543f2bf4b024250f3c5ccb63c4e5bd4642a7cf4546eb064736f6c634300081c0033",
  "linkReferences": {},
  "deployedLinkReferences": {}
}