{
  "_format": "hh-sol-artifact-1",
  "contractName": "Tracking",
  "sourceName": "contracts/Tracking.sol",
  "abi": [
    {
      "inputs": [],
      "stateMutability": "nonpayable",
      "type": "constructor"
    },
    {
      "anonymous": false,
      "inputs": [
        {
          "indexed": true,
          "internalType": "address",
          "name": "sender",
          "type": "address"
        },
        {
          "indexed": true,
          "internalType": "address",
          "name": "receiver",
          "type": "address"
        },
        {
          "indexed": false,
          "internalType": "uint256",
          "name": "pickupTime",
          "type": "uint256"
        },
        {
          "indexed": false,
          "internalType": "uint256",
          "name": "distance",
          "type": "uint256"
        },
        {
          "indexed": false,
          "internalType": "uint256",
          "name": "price",
          "type": "uint256"
        },
        {
          "indexed": false,
          "internalType": "enum Tracking.ShipmentStatus",
          "name": "status",
          "type": "uint8"
        }
      ],
      "name": "ShipmentCreated",
      "type": "event"
    },
    {
      "anonymous": false,
      "inputs": [
        {
          "indexed": true,
          "internalType": "address",
          "name": "sender",
          "type": "address"
        },
        {
          "indexed": true,
          "internalType": "address",
          "name": "receiver",
          "type": "address"
        },
        {
          "indexed": false,
          "internalType": "uint256",
          "name": "deliveryTime",
          "type": "uint256"
        },
        {
          "indexed": false,
          "internalType": "enum Tracking.ShipmentStatus",
          "name": "status",
          "type": "uint8"
        }
      ],
      "name": "ShipmentDelivered",
      "type": "event"
    },
    {
      "anonymous": false,
      "inputs": [
        {
          "indexed": true,
          "internalType": "address",
          "name": "sender",
          "type": "address"
        },
        {
          "indexed": true,
          "internalType": "address",
          "name": "receiver",
          "type": "address"
        },
        {
          "indexed": false,
          "internalType": "uint256",
          "name": "pickupTime",
          "type": "uint256"
        },
        {
          "indexed": false,
          "internalType": "enum Tracking.ShipmentStatus",
          "name": "status",
          "type": "uint8"
        }
      ],
      "name": "ShipmentInTransit",
      "type": "event"
    },
    {
      "anonymous": false,
      "inputs": [
        {
          "indexed": true,
          "internalType": "address",
          "name": "sender",
          "type": "address"
        },
        {
          "indexed": true,
          "internalType": "address",
          "name": "receiver",
          "type": "address"
        },
        {
          "indexed": false,
          "internalType": "uint256",
          "name": "amount",
          "type": "uint256"
        }
      ],
      "name": "ShipmentPaid",
      "type": "event"
    },
    {
      "inputs": [
        {
          "internalType": "address",
          "name": "_sender",
          "type": "address"
        },
        {
          "internalType": "address",
          "name": "_receiver",
          "type": "address"
        },
        {
          "internalType": "uint256",
          "name": "_index",
          "type": "uint256"
        }
      ],
      "name": "completeShipment",
      "outputs": [],
      "stateMutability": "nonpayable",
      "type": "function"
    },
    {
      "inputs": [
        {
          "internalType": "address",
          "name": "_receiver",
          "type": "address"
        },
        {
          "internalType": "uint256",
          "name": "_pickupTime",
          "type": "uint256"
        },
        {
          "internalType": "uint256",
          "name": "_distance",
          "type": "uint256"
        },
        {
          "internalType": "uint256",
          "name": "_price",
          "type": "uint256"
        }
      ],
      "name": "createShipment",
      "outputs": [],
      "stateMutability": "payable",
      "type": "function"
    },
    {
      "inputs": [
        {
          "internalType": "address",
          "name": "_sender",
          "type": "address"
        },
        {
          "internalType": "uint256",
          "name": "_index",
          "type": "uint256"
        }
      ],
      "name": "getShipment",
      "outputs": [
        {
          "internalType": "address",
          "name": "",
          "type": "address"
        },
        {
          "internalType": "address",
          "name": "",
          "type": "address"
        },
        {
          "internalType": "uint256",
          "name": "",
          "type": "uint256"
        },
        {
          "internalType": "uint256",
          "name": "",
          "type": "uint256"
        },
        {
          "internalType": "uint256",
          "name": "",
          "type": "uint256"
        },
        {
          "internalType": "uint256",
          "name": "",
          "type": "uint256"
        },
        {
          "internalType": "enum Tracking.ShipmentStatus",
          "name": "",
          "type": "uint8"
        },
        {
          "internalType": "bool",
          "name": "",
          "type": "bool"
        }
      ],
      "stateMutability": "view",
      "type": "function"
    },
    {
      "inputs": [
        {
          "internalType": "address",
          "name": "_sender",
          "type": "address"
        }
      ],
      "name": "getShipmentsCount",
      "outputs": [
        {
          "internalType": "uint256",
          "name": "",
          "type": "uint256"
        }
      ],
      "stateMutability": "view",
      "type": "function"
    },
    {
      "inputs": [],
      "name": "shipmentCount",
      "outputs": [
        {
          "internalType": "uint256",
          "name": "",
          "type": "uint256"
        }
      ],
      "stateMutability": "view",
      "type": "function"
    },
    {
      "inputs": [
        {
          "internalType": "address",
          "name": "",
          "type": "address"
        },
        {
          "internalType": "uint256",
          "name": "",
          "type": "uint256"
        }
      ],
      "name": "shipments",
      "outputs": [
        {
          "internalType": "address",
          "name": "sender",
          "type": "address"
        },
        {
          "internalType": "address",
          "name": "receiver",
          "type": "address"
        },
        {
          "internalType": "uint256",
          "name": "pickupTime",
          "type": "uint256"
        },
        {
          "internalType": "uint256",
          "name": "deliveryTime",
          "type": "uint256"
        },
        {
          "internalType": "uint256",
          "name": "distance",
          "type": "uint256"
        },
        {
          "internalType": "uint256",
          "name": "price",
          "type": "uint256"
        },
        {
          "internalType": "enum Tracking.ShipmentStatus",
          "name": "status",
          "type": "uint8"
        },
        {
          "internalType": "bool",
          "name": "isPaid",
          "type": "bool"
        }
      ],
      "stateMutability": "view",
      "type": "function"
    },
    {
      "inputs": [
        {
          "internalType": "address",
          "name": "_sender",
          "type": "address"
        },
        {
          "internalType": "address",
          "name": "_receiver",
          "type": "address"
        },
        {
          "internalType": "uint256",
          "name": "_index",
          "type": "uint256"
        }
      ],
      "name": "startShipment",
      "outputs": [],
      "stateMutability": "nonpayable",
      "type": "function"
    }
  ],
  "bytecode": "0x6080604052348015600f57600080fd5b50600060018190555061158e806100276000396000f3fe6080604052600436106100705760003560e01c80637ff5265d1161004e5780637ff5265d1461011f5780638365da5414610148578063aace20b71461018c578063cbc4b181146101b757610070565b8063179a878c1461007557806341fdc1951461009e5780635667e02f146100db575b600080fd5b34801561008157600080fd5b5061009c60048036038101906100979190610f15565b6101d3565b005b3480156100aa57600080fd5b506100c560048036038101906100c09190610f68565b6105b3565b6040516100d29190610fa4565b60405180910390f35b3480156100e757600080fd5b5061010260048036038101906100fd9190610fbf565b6105fe565b6040516101169897969594939291906110a0565b60405180910390f35b34801561012b57600080fd5b5061014660048036038101906101419190610f15565b6106bd565b005b34801561015457600080fd5b5061016f600480360381019061016a9190610fbf565b61094b565b6040516101839897969594939291906110a0565b60405180910390f35b34801561019857600080fd5b506101a1610bb8565b6040516101ae9190610fa4565b60405180910390f35b6101d160048036038101906101cc919061111e565b610bbe565b005b6000808473ffffffffffffffffffffffffffffffffffffffff1673ffffffffffffffffffffffffffffffffffffffff168152602001908152602001600020805490508110610256576040517f08c379a000000000000000000000000000000000000000000000000000000000815260040161024d906111e2565b60405180910390fd5b60008060008573ffffffffffffffffffffffffffffffffffffffff1673ffffffffffffffffffffffffffffffffffffffff16815260200190815260200160002082815481106102a8576102a7611202565b5b906000526020600020906007020190508273ffffffffffffffffffffffffffffffffffffffff168160010160009054906101000a900473ffffffffffffffffffffffffffffffffffffffff1673ffffffffffffffffffffffffffffffffffffffff161461034a576040517f08c379a00000000000000000000000000000000000000000000000000000000081526004016103419061127d565b60405180910390fd5b6001600281111561035e5761035d61100e565b5b8160060160009054906101000a900460ff1660028111156103825761038161100e565b5b146103c2576040517f08c379a00000000000000000000000000000000000000000000000000000000081526004016103b9906112e9565b60405180910390fd5b8060060160019054906101000a900460ff1615610414576040517f08c379a000000000000000000000000000000000000000000000000000000000815260040161040b90611355565b60405180910390fd5b60028160060160006101000a81548160ff0219169083600281111561043c5761043b61100e565b5b02179055504281600301819055506000816005015490508160010160009054906101000a900473ffffffffffffffffffffffffffffffffffffffff1673ffffffffffffffffffffffffffffffffffffffff166108fc829081150290604051600060405180830381858888f193505050501580156104bd573d6000803e3d6000fd5b5060018260060160016101000a81548160ff0219169083151502179055508373ffffffffffffffffffffffffffffffffffffffff168573ffffffffffffffffffffffffffffffffffffffff167fedff7d6efa4e5368437ce23e86b766467c5ee768b277cdfb54b2b5dc24ff8c628460030154600260405161053f929190611375565b60405180910390a38373ffffffffffffffffffffffffffffffffffffffff168573ffffffffffffffffffffffffffffffffffffffff167f2b6f2473aebafaf8d0889669490135928ec4454d2e29a103fd39693bbca6aef1836040516105a49190610fa4565b60405180910390a35050505050565b60008060008373ffffffffffffffffffffffffffffffffffffffff1673ffffffffffffffffffffffffffffffffffffffff168152602001908152602001600020805490509050919050565b6000602052816000526040600020818154811061061a57600080fd5b9060005260206000209060070201600091509150508060000160009054906101000a900473ffffffffffffffffffffffffffffffffffffffff16908060010160009054906101000a900473ffffffffffffffffffffffffffffffffffffffff16908060020154908060030154908060040154908060050154908060060160009054906101000a900460ff16908060060160019054906101000a900460ff16905088565b6000808473ffffffffffffffffffffffffffffffffffffffff1673ffffffffffffffffffffffffffffffffffffffff168152602001908152602001600020805490508110610740576040517f08c379a0000000000000000000000000000000000000000000000000000000008152600401610737906111e2565b60405180910390fd5b60008060008573ffffffffffffffffffffffffffffffffffffffff1673ffffffffffffffffffffffffffffffffffffffff168152602001908152602001600020828154811061079257610791611202565b5b906000526020600020906007020190508273ffffffffffffffffffffffffffffffffffffffff168160010160009054906101000a900473ffffffffffffffffffffffffffffffffffffffff1673ffffffffffffffffffffffffffffffffffffffff1614610834576040517f08c379a000000000000000000000000000000000000000000000000000000000815260040161082b9061127d565b60405180910390fd5b600060028111156108485761084761100e565b5b8160060160009054906101000a900460ff16600281111561086c5761086b61100e565b5b146108ac576040517f08c379a00000000000000000000000000000000000000000000000000000000081526004016108a3906113ea565b60405180910390fd5b60018160060160006101000a81548160ff021916908360028111156108d4576108d361100e565b5b02179055508273ffffffffffffffffffffffffffffffffffffffff168473ffffffffffffffffffffffffffffffffffffffff167f02cc685fccf7ce79873539fb05d3f52a1c3c0de040946d4de8cd50df5670540e8360020154600160405161093d929190611375565b60405180910390a350505050565b6000806000806000806000806000808b73ffffffffffffffffffffffffffffffffffffffff1673ffffffffffffffffffffffffffffffffffffffff1681526020019081526020016000208054905089106109da576040517f08c379a00000000000000000000000000000000000000000000000000000000081526004016109d1906111e2565b60405180910390fd5b60008060008c73ffffffffffffffffffffffffffffffffffffffff1673ffffffffffffffffffffffffffffffffffffffff1681526020019081526020016000208a81548110610a2c57610a2b611202565b5b9060005260206000209060070201604051806101000160405290816000820160009054906101000a900473ffffffffffffffffffffffffffffffffffffffff1673ffffffffffffffffffffffffffffffffffffffff1673ffffffffffffffffffffffffffffffffffffffff1681526020016001820160009054906101000a900473ffffffffffffffffffffffffffffffffffffffff1673ffffffffffffffffffffffffffffffffffffffff1673ffffffffffffffffffffffffffffffffffffffff168152602001600282015481526020016003820154815260200160048201548152602001600582015481526020016006820160009054906101000a900460ff166002811115610b3f57610b3e61100e565b5b6002811115610b5157610b5061100e565b5b81526020016006820160019054906101000a900460ff1615151515815250509050806000015181602001518260400151836060015184608001518560a001518660c001518760e0015198509850985098509850985098509850509295985092959890939650565b60015481565b803414610c00576040517f08c379a0000000000000000000000000000000000000000000000000000000008152600401610bf79061147c565b60405180910390fd5b60006040518061010001604052803373ffffffffffffffffffffffffffffffffffffffff1681526020018673ffffffffffffffffffffffffffffffffffffffff1681526020018581526020016000815260200184815260200183815260200160006002811115610c7357610c7261100e565b5b81526020016000151581525090506000803373ffffffffffffffffffffffffffffffffffffffff1673ffffffffffffffffffffffffffffffffffffffff16815260200190815260200160002081908060018154018082558091505060019003906000526020600020906007020160009091909190915060008201518160000160006101000a81548173ffffffffffffffffffffffffffffffffffffffff021916908373ffffffffffffffffffffffffffffffffffffffff16021790555060208201518160010160006101000a81548173ffffffffffffffffffffffffffffffffffffffff021916908373ffffffffffffffffffffffffffffffffffffffff16021790555060408201518160020155606082015181600301556080820151816004015560a0820151816005015560c08201518160060160006101000a81548160ff02191690836002811115610dca57610dc961100e565b5b021790555060e08201518160060160016101000a81548160ff021916908315150217905550505060016000815480929190610e04906114cb565b91905055508473ffffffffffffffffffffffffffffffffffffffff163373ffffffffffffffffffffffffffffffffffffffff167f4bc18ce3e91343ebfc329b1bbfa19ddb6855cf83f5bc058a70c3b0a2bddddaa48686866000604051610e6d9493929190611513565b60405180910390a35050505050565b600080fd5b600073ffffffffffffffffffffffffffffffffffffffff82169050919050565b6000610eac82610e81565b9050919050565b610ebc81610ea1565b8114610ec757600080fd5b50565b600081359050610ed981610eb3565b92915050565b6000819050919050565b610ef281610edf565b8114610efd57600080fd5b50565b600081359050610f0f81610ee9565b92915050565b600080600060608486031215610f2e57610f2d610e7c565b5b6000610f3c86828701610eca565b9350506020610f4d86828701610eca565b9250506040610f5e86828701610f00565b9150509250925092565b600060208284031215610f7e57610f7d610e7c565b5b6000610f8c84828501610eca565b91505092915050565b610f9e81610edf565b82525050565b6000602082019050610fb96000830184610f95565b92915050565b60008060408385031215610fd657610fd5610e7c565b5b6000610fe485828601610eca565b9250506020610ff585828601610f00565b9150509250929050565b61100881610ea1565b82525050565b7f4e487b7100000000000000000000000000000000000000000000000000000000600052602160045260246000fd5b6003811061104e5761104d61100e565b5b50565b600081905061105f8261103d565b919050565b600061106f82611051565b9050919050565b61107f81611064565b82525050565b60008115159050919050565b61109a81611085565b82525050565b6000610100820190506110b6600083018b610fff565b6110c3602083018a610fff565b6110d06040830189610f95565b6110dd6060830188610f95565b6110ea6080830187610f95565b6110f760a0830186610f95565b61110460c0830185611076565b61111160e0830184611091565b9998505050505050505050565b6000806000806080858703121561113857611137610e7c565b5b600061114687828801610eca565b945050602061115787828801610f00565b935050604061116887828801610f00565b925050606061117987828801610f00565b91505092959194509250565b600082825260208201905092915050565b7f496e76616c696420736869706d656e7420696e64657800000000000000000000600082015250565b60006111cc601683611185565b91506111d782611196565b602082019050919050565b600060208201905081810360008301526111fb816111bf565b9050919050565b7f4e487b7100000000000000000000000000000000000000000000000000000000600052603260045260246000fd5b7f496e76616c696420726563656976657200000000000000000000000000000000600082015250565b6000611267601083611185565b915061127282611231565b602082019050919050565b600060208201905081810360008301526112968161125a565b9050919050565b7f536869706d656e74206e6f7420696e207472616e736974000000000000000000600082015250565b60006112d3601783611185565b91506112de8261129d565b602082019050919050565b60006020820190508181036000830152611302816112c6565b9050919050565b7f536869706d656e7420616c726561647920706169640000000000000000000000600082015250565b600061133f601583611185565b915061134a82611309565b602082019050919050565b6000602082019050818103600083015261136e81611332565b9050919050565b600060408201905061138a6000830185610f95565b6113976020830184611076565b9392505050565b7f536869706d656e7420616c726561647920696e207472616e7369740000000000600082015250565b60006113d4601b83611185565b91506113df8261139e565b602082019050919050565b60006020820190508181036000830152611403816113c7565b9050919050565b7f5061796d656e7420616d6f756e74206d757374206d617463682074686520707260008201527f6963652e00000000000000000000000000000000000000000000000000000000602082015250565b6000611466602483611185565b91506114718261140a565b604082019050919050565b6000602082019050818103600083015261149581611459565b9050919050565b7f4e487b7100000000000000000000000000000000000000000000000000000000600052601160045260246000fd5b60006114d682610edf565b91507fffffffffffffffffffffffffffffffffffffffffffffffffffffffffffffffff82036115085761150761149c565b5b600182019050919050565b60006080820190506115286000830187610f95565b6115356020830186610f95565b6115426040830185610f95565b61154f6060830184611076565b9594505050505056fea2646970667358221220f6284bdf8c68d89eb814b419573427c4874b59863e5fda9c3869c32f74d3a3ef64736f6c634300081c0033",
  "linkReferences": {},
  "deployedLinkReferences": {}
}